{
  "contractName": "ImageStorage",
  "abi": [
    {
      "inputs": [
        {
          "internalType": "address payable",
          "name": "_feeRecipient",
          "type": "address"
        }
      ],
      "payable": false,
      "stateMutability": "nonpayable",
      "type": "constructor"
    },
    {
      "anonymous": false,
      "inputs": [
        {
          "indexed": true,
          "internalType": "address",
          "name": "user",
          "type": "address"
        },
        {
          "indexed": false,
          "internalType": "string",
          "name": "imageHash",
          "type": "string"
        }
      ],
      "name": "ImageStored",
      "type": "event"
    },
    {
      "constant": true,
      "inputs": [],
      "name": "feeRecipient",
      "outputs": [
        {
          "internalType": "address payable",
          "name": "",
          "type": "address"
        }
      ],
      "payable": false,
      "stateMutability": "view",
      "type": "function"
    },
    {
      "constant": true,
      "inputs": [
        {
          "internalType": "address",
          "name": "",
          "type": "address"
        },
        {
          "internalType": "uint256",
          "name": "",
          "type": "uint256"
        }
      ],
      "name": "userImages",
      "outputs": [
        {
          "internalType": "string",
          "name": "",
          "type": "string"
        }
      ],
      "payable": false,
      "stateMutability": "view",
      "type": "function"
    },
    {
      "constant": true,
      "inputs": [
        {
          "internalType": "uint256",
          "name": "",
          "type": "uint256"
        }
      ],
      "name": "users",
      "outputs": [
        {
          "internalType": "address",
          "name": "",
          "type": "address"
        }
      ],
      "payable": false,
      "stateMutability": "view",
      "type": "function"
    },
    {
      "constant": false,
      "inputs": [
        {
          "internalType": "string",
          "name": "_imageHash",
          "type": "string"
        }
      ],
      "name": "storeImage",
      "outputs": [],
      "payable": true,
      "stateMutability": "payable",
      "type": "function"
    },
    {
      "constant": false,
      "inputs": [
        {
          "internalType": "address payable",
          "name": "_newAddress",
          "type": "address"
        }
      ],
      "name": "setAddress",
      "outputs": [],
      "payable": false,
      "stateMutability": "nonpayable",
      "type": "function"
    },
    {
      "constant": true,
      "inputs": [],
      "name": "addressCount",
      "outputs": [
        {
          "internalType": "uint256",
          "name": "",
          "type": "uint256"
        }
      ],
      "payable": false,
      "stateMutability": "view",
      "type": "function"
    },
    {
      "constant": true,
      "inputs": [
        {
          "internalType": "uint256",
          "name": "_index",
          "type": "uint256"
        }
      ],
      "name": "userAtIndex",
      "outputs": [
        {
          "internalType": "address",
          "name": "",
          "type": "address"
        }
      ],
      "payable": false,
      "stateMutability": "view",
      "type": "function"
    },
    {
      "constant": true,
      "inputs": [
        {
          "internalType": "address",
          "name": "_user",
          "type": "address"
        }
      ],
      "name": "getImagesByUser",
      "outputs": [
        {
          "internalType": "string[]",
          "name": "",
          "type": "string[]"
        }
      ],
      "payable": false,
      "stateMutability": "view",
      "type": "function"
    }
  ],
  "bytecode": "0x608060405234801561001057600080fd5b50604051610f72380380610f728339818101604052610032919081019061008e565b80600260006101000a81548173ffffffffffffffffffffffffffffffffffffffff021916908373ffffffffffffffffffffffffffffffffffffffff16021790555050610100565b600081519050610088816100e9565b92915050565b6000602082840312156100a057600080fd5b60006100ae84828501610079565b91505092915050565b60006100c2826100c9565b9050919050565b600073ffffffffffffffffffffffffffffffffffffffff82169050919050565b6100f2816100b7565b81146100fd57600080fd5b50565b610e638061010f6000396000f3fe60806040526004361061007b5760003560e01c8063b75840b71161004e578063b75840b714610150578063bc2586721461016c578063e30081a0146101a9578063eb06980f146101d25761007b565b8063365b98b2146100805780633c37bd4f146100bd57806346904840146100fa5780639d80c81814610125575b600080fd5b34801561008c57600080fd5b506100a760048036036100a2919081019061096f565b61020f565b6040516100b49190610b79565b60405180910390f35b3480156100c957600080fd5b506100e460048036036100df91908101906108f2565b61024b565b6040516100f19190610bd1565b60405180910390f35b34801561010657600080fd5b5061010f610311565b60405161011c9190610b94565b60405180910390f35b34801561013157600080fd5b5061013a610337565b6040516101479190610c55565b60405180910390f35b61016a6004803603610165919081019061092e565b610344565b005b34801561017857600080fd5b50610193600480360361018e91908101906108a0565b610575565b6040516101a09190610baf565b60405180910390f35b3480156101b557600080fd5b506101d060048036036101cb91908101906108c9565b61069c565b005b3480156101de57600080fd5b506101f960048036036101f4919081019061096f565b6106e0565b6040516102069190610b79565b60405180910390f35b6001818154811061021c57fe5b906000526020600020016000915054906101000a900473ffffffffffffffffffffffffffffffffffffffff1681565b6000602052816000526040600020818154811061026457fe5b90600052602060002001600091509150508054600181600116156101000203166002900480601f0160208091040260200160405190810160405280929190818152602001828054600181600116156101000203166002900480156103095780601f106102de57610100808354040283529160200191610309565b820191906000526020600020905b8154815290600101906020018083116102ec57829003601f168201915b505050505081565b600260009054906101000a900473ffffffffffffffffffffffffffffffffffffffff1681565b6000600180549050905090565b67016345785d8a000034101561038f576040517f08c379a000000000000000000000000000000000000000000000000000000000815260040161038690610c15565b60405180910390fd5b60008060003373ffffffffffffffffffffffffffffffffffffffff1673ffffffffffffffffffffffffffffffffffffffff1681526020019081526020016000208054905014156104405760013390806001815401808255809150509060018203906000526020600020016000909192909190916101000a81548173ffffffffffffffffffffffffffffffffffffffff021916908373ffffffffffffffffffffffffffffffffffffffff160217905550505b6000803373ffffffffffffffffffffffffffffffffffffffff1673ffffffffffffffffffffffffffffffffffffffff1681526020019081526020016000208190806001815401808255809150509060018203906000526020600020016000909192909190915090805190602001906104b9929190610768565b50503373ffffffffffffffffffffffffffffffffffffffff167f65620063b5448d8896268e0ba33c4c3e90f83318a6913967b0bb878e944d8e76826040516105019190610bf3565b60405180910390a2600260009054906101000a900473ffffffffffffffffffffffffffffffffffffffff1673ffffffffffffffffffffffffffffffffffffffff166108fc349081150290604051600060405180830381858888f19350505050158015610571573d6000803e3d6000fd5b5050565b60606000808373ffffffffffffffffffffffffffffffffffffffff1673ffffffffffffffffffffffffffffffffffffffff168152602001908152602001600020805480602002602001604051908101604052809291908181526020016000905b82821015610691578382906000526020600020018054600181600116156101000203166002900480601f01602080910402602001604051908101604052809291908181526020018280546001816001161561010002031660029004801561067d5780601f106106525761010080835404028352916020019161067d565b820191906000526020600020905b81548152906001019060200180831161066057829003601f168201915b5050505050815260200190600101906105d5565b505050509050919050565b80600260006101000a81548173ffffffffffffffffffffffffffffffffffffffff021916908373ffffffffffffffffffffffffffffffffffffffff16021790555050565b60006001805490508210610729576040517f08c379a000000000000000000000000000000000000000000000000000000000815260040161072090610c35565b60405180910390fd5b6001828154811061073657fe5b9060005260206000200160009054906101000a900473ffffffffffffffffffffffffffffffffffffffff169050919050565b828054600181600116156101000203166002900490600052602060002090601f016020900481019282601f106107a957805160ff19168380011785556107d7565b828001600101855582156107d7579182015b828111156107d65782518255916020019190600101906107bb565b5b5090506107e491906107e8565b5090565b61080a91905b808211156108065760008160009055506001016107ee565b5090565b90565b60008135905061081c81610ddb565b92915050565b60008135905061083181610df2565b92915050565b600082601f83011261084857600080fd5b813561085b61085682610c9d565b610c70565b9150808252602083016020830185838301111561087757600080fd5b610882838284610d88565b50505092915050565b60008135905061089a81610e09565b92915050565b6000602082840312156108b257600080fd5b60006108c08482850161080d565b91505092915050565b6000602082840312156108db57600080fd5b60006108e984828501610822565b91505092915050565b6000806040838503121561090557600080fd5b60006109138582860161080d565b92505060206109248582860161088b565b9150509250929050565b60006020828403121561094057600080fd5b600082013567ffffffffffffffff81111561095a57600080fd5b61096684828501610837565b91505092915050565b60006020828403121561098157600080fd5b600061098f8482850161088b565b91505092915050565b60006109a48383610a78565b905092915050565b6109b581610d4c565b82525050565b6109c481610d3a565b82525050565b60006109d582610cd9565b6109df8185610d07565b9350836020820285016109f185610cc9565b8060005b85811015610a2d5784840389528151610a0e8582610998565b9450610a1983610cfa565b925060208a019950506001810190506109f5565b50829750879550505050505092915050565b6000610a4a82610cef565b610a548185610d29565b9350610a64818560208601610d97565b610a6d81610dca565b840191505092915050565b6000610a8382610ce4565b610a8d8185610d18565b9350610a9d818560208601610d97565b610aa681610dca565b840191505092915050565b6000610abc82610ce4565b610ac68185610d29565b9350610ad6818560208601610d97565b610adf81610dca565b840191505092915050565b6000610af7601283610d29565b91507f496e73756666696369656e7420457468657200000000000000000000000000006000830152602082019050919050565b6000610b37601383610d29565b91507f496e646578206f7574206f6620626f756e6473000000000000000000000000006000830152602082019050919050565b610b7381610d7e565b82525050565b6000602082019050610b8e60008301846109bb565b92915050565b6000602082019050610ba960008301846109ac565b92915050565b60006020820190508181036000830152610bc981846109ca565b905092915050565b60006020820190508181036000830152610beb8184610ab1565b905092915050565b60006020820190508181036000830152610c0d8184610a3f565b905092915050565b60006020820190508181036000830152610c2e81610aea565b9050919050565b60006020820190508181036000830152610c4e81610b2a565b9050919050565b6000602082019050610c6a6000830184610b6a565b92915050565b6000604051905081810181811067ffffffffffffffff82111715610c9357600080fd5b8060405250919050565b600067ffffffffffffffff821115610cb457600080fd5b601f19601f8301169050602081019050919050565b6000819050602082019050919050565b600081519050919050565b600081519050919050565b600081519050919050565b6000602082019050919050565b600082825260208201905092915050565b600082825260208201905092915050565b600082825260208201905092915050565b6000610d4582610d5e565b9050919050565b6000610d5782610d5e565b9050919050565b600073ffffffffffffffffffffffffffffffffffffffff82169050919050565b6000819050919050565b82818337600083830152505050565b60005b83811015610db5578082015181840152602081019050610d9a565b83811115610dc4576000848401525b50505050565b6000601f19601f8301169050919050565b610de481610d3a565b8114610def57600080fd5b50565b610dfb81610d4c565b8114610e0657600080fd5b50565b610e1281610d7e565b8114610e1d57600080fd5b5056fea365627a7a723158208e6ca4e5231b3e5096431efff4fa676a9e9b78bbfedb8c7a055553a69751da586c6578706572696d656e74616cf564736f6c63430005100040",
  "source": "pragma solidity >=0.4.22 <0.8.0;\r\n\r\npragma experimental ABIEncoderV2;\r\n\r\ncontract ImageStorage {\r\n    mapping(address => string[]) public userImages;\r\n    address[] public users;\r\n    address payable public feeRecipient; // Address to receive the service fee\r\n\r\n    event ImageStored(address indexed user, string imageHash);\r\n\r\n    constructor(address payable _feeRecipient) public {\r\n        feeRecipient = _feeRecipient;\r\n    }\r\n\r\n    function storeImage(string memory _imageHash) public payable {\r\n        // Check if the sender has enough Ether (0.1 ether) to proceed with the upload\r\n        require(msg.value >= 0.1 ether, \"Insufficient Ether\");\r\n\r\n        if (userImages[msg.sender].length == 0) {\r\n            users.push(msg.sender);\r\n        }\r\n        userImages[msg.sender].push(_imageHash);\r\n        emit ImageStored(msg.sender, _imageHash);\r\n\r\n        // Transfer the service fee to the specified address\r\n        feeRecipient.transfer(msg.value);\r\n    }\r\n\r\n    function setAddress(address payable _newAddress) public {\r\n        feeRecipient = _newAddress;\r\n    }\r\n\r\n    function addressCount() public view returns (uint256) {\r\n        return users.length;\r\n    }\r\n\r\n    function userAtIndex(uint256 _index) public view returns (address) {\r\n        require(_index < users.length, \"Index out of bounds\");\r\n        return users[_index];\r\n    }\r\n\r\n    function getImagesByUser(address _user) public view returns (string[] memory) {\r\n        return userImages[_user];\r\n    }\r\n}\r\n",
  "sourcePath": "D:\\Car_Snap\\car_damage_detection_web\\Blockchain\\contracts\\ImageStorage.sol",
  "compiler": {
    "name": "solc",
    "version": "0.5.16+commit.9c3226ce.Emscripten.clang"
  },
  "schemaVersion": "3.4.16",
  "updatedAt": "2024-04-27T21:22:29.531Z",
  "devdoc": {
    "methods": {}
  },
  "userdoc": {
    "methods": {}
  }
}