{
  "contractName": "ResultStorage",
  "abi": [
    {
      "anonymous": false,
      "inputs": [
        {
          "indexed": true,
          "internalType": "uint256",
          "name": "id",
          "type": "uint256"
        },
        {
          "indexed": false,
          "internalType": "address",
          "name": "sender",
          "type": "address"
        },
        {
          "indexed": false,
          "internalType": "string",
          "name": "imageHash",
          "type": "string"
        },
        {
          "indexed": false,
          "internalType": "string",
          "name": "result",
          "type": "string"
        }
      ],
      "name": "ResultStored",
      "type": "event"
    },
    {
      "constant": true,
      "inputs": [],
      "name": "resultCount",
      "outputs": [
        {
          "internalType": "uint256",
          "name": "",
          "type": "uint256"
        }
      ],
      "payable": false,
      "stateMutability": "view",
      "type": "function"
    },
    {
      "constant": true,
      "inputs": [
        {
          "internalType": "uint256",
          "name": "",
          "type": "uint256"
        }
      ],
      "name": "results",
      "outputs": [
        {
          "internalType": "address",
          "name": "sender",
          "type": "address"
        },
        {
          "internalType": "string",
          "name": "imageHash",
          "type": "string"
        },
        {
          "internalType": "string",
          "name": "result",
          "type": "string"
        }
      ],
      "payable": false,
      "stateMutability": "view",
      "type": "function"
    },
    {
      "constant": false,
      "inputs": [
        {
          "internalType": "string",
          "name": "_imageHash",
          "type": "string"
        },
        {
          "internalType": "string",
          "name": "_result",
          "type": "string"
        }
      ],
      "name": "storeResult",
      "outputs": [],
      "payable": false,
      "stateMutability": "nonpayable",
      "type": "function"
    },
    {
      "constant": true,
      "inputs": [
        {
          "internalType": "uint256",
          "name": "_id",
          "type": "uint256"
        }
      ],
      "name": "getResult",
      "outputs": [
        {
          "internalType": "address",
          "name": "",
          "type": "address"
        },
        {
          "internalType": "string",
          "name": "",
          "type": "string"
        },
        {
          "internalType": "string",
          "name": "",
          "type": "string"
        }
      ],
      "payable": false,
      "stateMutability": "view",
      "type": "function"
    }
  ],
  "bytecode": "0x608060405234801561001057600080fd5b506109e5806100206000396000f3fe608060405234801561001057600080fd5b506004361061004c5760003560e01c80631b0c27da14610051578063995e433914610083578063a6c4f4a3146100b5578063aa4fdefb146100d1575b600080fd5b61006b60048036036100669190810190610694565b6100ef565b60405161007a939291906107e6565b60405180910390f35b61009d60048036036100989190810190610694565b610269565b6040516100ac939291906107a1565b60405180910390f35b6100cf60048036036100ca9190810190610628565b6103f7565b005b6100d9610514565b6040516100e6919061082b565b60405180910390f35b60006020528060005260406000206000915090508060000160009054906101000a900473ffffffffffffffffffffffffffffffffffffffff1690806001018054600181600116156101000203166002900480601f0160208091040260200160405190810160405280929190818152602001828054600181600116156101000203166002900480156101c15780601f10610196576101008083540402835291602001916101c1565b820191906000526020600020905b8154815290600101906020018083116101a457829003601f168201915b505050505090806002018054600181600116156101000203166002900480601f01602080910402602001604051908101604052809291908181526020018280546001816001161561010002031660029004801561025f5780601f106102345761010080835404028352916020019161025f565b820191906000526020600020905b81548152906001019060200180831161024257829003601f168201915b5050505050905083565b6000606080600080600086815260200190815260200160002090508060000160009054906101000a900473ffffffffffffffffffffffffffffffffffffffff168160010182600201818054600181600116156101000203166002900480601f0160208091040260200160405190810160405280929190818152602001828054600181600116156101000203166002900480156103465780601f1061031b57610100808354040283529160200191610346565b820191906000526020600020905b81548152906001019060200180831161032957829003601f168201915b50505050509150808054600181600116156101000203166002900480601f0160208091040260200160405190810160405280929190818152602001828054600181600116156101000203166002900480156103e25780601f106103b7576101008083540402835291602001916103e2565b820191906000526020600020905b8154815290600101906020018083116103c557829003601f168201915b50505050509050935093509350509193909250565b60405180606001604052803373ffffffffffffffffffffffffffffffffffffffff16815260200183815260200182815250600080600154815260200190815260200160002060008201518160000160006101000a81548173ffffffffffffffffffffffffffffffffffffffff021916908373ffffffffffffffffffffffffffffffffffffffff160217905550602082015181600101908051906020019061049f92919061051a565b5060408201518160020190805190602001906104bc92919061051a565b509050506001547f81ce070f1707e1d3cb2bb51629d1a31eed2e26080e065b0dec562e88e9bca5263384846040516104f69392919061075c565b60405180910390a26001600081548092919060010191905055505050565b60015481565b828054600181600116156101000203166002900490600052602060002090601f016020900481019282601f1061055b57805160ff1916838001178555610589565b82800160010185558215610589579182015b8281111561058857825182559160200191906001019061056d565b5b509050610596919061059a565b5090565b6105bc91905b808211156105b85760008160009055506001016105a0565b5090565b90565b600082601f8301126105d057600080fd5b81356105e36105de82610873565b610846565b915080825260208301602083018583830111156105ff57600080fd5b61060a838284610938565b50505092915050565b6000813590506106228161098b565b92915050565b6000806040838503121561063b57600080fd5b600083013567ffffffffffffffff81111561065557600080fd5b610661858286016105bf565b925050602083013567ffffffffffffffff81111561067e57600080fd5b61068a858286016105bf565b9150509250929050565b6000602082840312156106a657600080fd5b60006106b484828501610613565b91505092915050565b6106c681610902565b82525050565b6106d5816108c6565b82525050565b60006106e6826108aa565b6106f081856108b5565b9350610700818560208601610947565b6107098161097a565b840191505092915050565b600061071f8261089f565b61072981856108b5565b9350610739818560208601610947565b6107428161097a565b840191505092915050565b610756816108f8565b82525050565b600060608201905061077160008301866106bd565b818103602083015261078381856106db565b9050818103604083015261079781846106db565b9050949350505050565b60006060820190506107b660008301866106cc565b81810360208301526107c881856106db565b905081810360408301526107dc81846106db565b9050949350505050565b60006060820190506107fb60008301866106cc565b818103602083015261080d8185610714565b905081810360408301526108218184610714565b9050949350505050565b6000602082019050610840600083018461074d565b92915050565b6000604051905081810181811067ffffffffffffffff8211171561086957600080fd5b8060405250919050565b600067ffffffffffffffff82111561088a57600080fd5b601f19601f8301169050602081019050919050565b600081519050919050565b600081519050919050565b600082825260208201905092915050565b60006108d1826108d8565b9050919050565b600073ffffffffffffffffffffffffffffffffffffffff82169050919050565b6000819050919050565b600061090d82610914565b9050919050565b600061091f82610926565b9050919050565b6000610931826108d8565b9050919050565b82818337600083830152505050565b60005b8381101561096557808201518184015260208101905061094a565b83811115610974576000848401525b50505050565b6000601f19601f8301169050919050565b610994816108f8565b811461099f57600080fd5b5056fea365627a7a723158201ff57f1f0bfaf7e97c7661cd2c1867cf9e82fe034e6fd4237f3b7d59b9c8719b6c6578706572696d656e74616cf564736f6c63430005100040",
  "source": "pragma solidity >=0.4.22 <0.8.0;\r\n\r\npragma experimental ABIEncoderV2;\r\n\r\ncontract ResultStorage {\r\n    struct Result {\r\n        address sender;\r\n        string imageHash;\r\n        string result;\r\n    }\r\n\r\n    mapping(uint256 => Result) public results;\r\n    uint256 public resultCount;\r\n\r\n    event ResultStored(uint256 indexed id, address sender, string imageHash, string result);\r\n\r\n    function storeResult(string memory _imageHash, string memory _result) public {\r\n        results[resultCount] = Result(msg.sender, _imageHash, _result);\r\n        emit ResultStored(resultCount, msg.sender, _imageHash, _result);\r\n        resultCount++;\r\n    }\r\n\r\n    function getResult(uint256 _id) public view returns (address, string memory, string memory) {\r\n        Result storage result = results[_id];\r\n        return (result.sender, result.imageHash, result.result);\r\n    }\r\n}\r\n",
  "sourcePath": "C:\\Users\\AH\\OneDrive\\Desktop\\GitHub\\Car_Snap\\car_damage_detection_web\\Blockchain\\contracts\\ResultStorage.sol",
  "compiler": {
    "name": "solc",
    "version": "0.5.16+commit.9c3226ce.Emscripten.clang"
  },
  "schemaVersion": "3.4.16",
  "updatedAt": "2024-05-02T01:02:23.771Z",
  "networkType": "ethereum",
  "devdoc": {
    "methods": {}
  },
  "userdoc": {
    "methods": {}
  }
}