{
  "contractName": "ResultStorage",
  "abi": [
    {
      "anonymous": false,
      "inputs": [
        {
          "indexed": true,
          "internalType": "address",
          "name": "sender",
          "type": "address"
        },
        {
          "indexed": false,
          "internalType": "string",
          "name": "imageHash",
          "type": "string"
        },
        {
          "indexed": false,
          "internalType": "string",
          "name": "result",
          "type": "string"
        }
      ],
      "name": "ResultStored",
      "type": "event"
    },
    {
      "constant": true,
      "inputs": [],
      "name": "resultCount",
      "outputs": [
        {
          "internalType": "uint256",
          "name": "",
          "type": "uint256"
        }
      ],
      "payable": false,
      "stateMutability": "view",
      "type": "function"
    },
    {
      "constant": true,
      "inputs": [
        {
          "internalType": "bytes32",
          "name": "",
          "type": "bytes32"
        }
      ],
      "name": "results",
      "outputs": [
        {
          "internalType": "address",
          "name": "sender",
          "type": "address"
        },
        {
          "internalType": "string",
          "name": "imageHash",
          "type": "string"
        },
        {
          "internalType": "string",
          "name": "result",
          "type": "string"
        }
      ],
      "payable": false,
      "stateMutability": "view",
      "type": "function"
    },
    {
      "constant": false,
      "inputs": [
        {
          "internalType": "string",
          "name": "_imageHash",
          "type": "string"
        },
        {
          "internalType": "string",
          "name": "_result",
          "type": "string"
        }
      ],
      "name": "storeResult",
      "outputs": [],
      "payable": false,
      "stateMutability": "nonpayable",
      "type": "function"
    },
    {
      "constant": true,
      "inputs": [
        {
          "internalType": "string",
          "name": "_imageHash",
          "type": "string"
        }
      ],
      "name": "getResult",
      "outputs": [
        {
          "internalType": "string",
          "name": "",
          "type": "string"
        }
      ],
      "payable": false,
      "stateMutability": "view",
      "type": "function"
    }
  ],
  "bytecode": "0x608060405234801561001057600080fd5b506109a2806100206000396000f3fe608060405234801561001057600080fd5b506004361061004c5760003560e01c8063498cc70d146100515780634c6b25b114610081578063a6c4f4a3146100b3578063aa4fdefb146100cf575b600080fd5b61006b600480360361006691908101906105e6565b6100ed565b60405161007891906107b0565b60405180910390f35b61009b600480360361009691908101906105bd565b6101d6565b6040516100aa9392919061076b565b60405180910390f35b6100cd60048036036100c89190810190610627565b610350565b005b6100d76104a9565b6040516100e49190610809565b60405180910390f35b60606000826040516020016101029190610754565b60405160208183030381529060405280519060200120905060008060008381526020019081526020016000209050806002018054600181600116156101000203166002900480601f0160208091040260200160405190810160405280929190818152602001828054600181600116156101000203166002900480156101c85780601f1061019d576101008083540402835291602001916101c8565b820191906000526020600020905b8154815290600101906020018083116101ab57829003601f168201915b505050505092505050919050565b60006020528060005260406000206000915090508060000160009054906101000a900473ffffffffffffffffffffffffffffffffffffffff1690806001018054600181600116156101000203166002900480601f0160208091040260200160405190810160405280929190818152602001828054600181600116156101000203166002900480156102a85780601f1061027d576101008083540402835291602001916102a8565b820191906000526020600020905b81548152906001019060200180831161028b57829003601f168201915b505050505090806002018054600181600116156101000203166002900480601f0160208091040260200160405190810160405280929190818152602001828054600181600116156101000203166002900480156103465780601f1061031b57610100808354040283529160200191610346565b820191906000526020600020905b81548152906001019060200180831161032957829003601f168201915b5050505050905083565b6000826040516020016103639190610754565b60405160208183030381529060405280519060200120905060405180606001604052803373ffffffffffffffffffffffffffffffffffffffff1681526020018481526020018381525060008083815260200190815260200160002060008201518160000160006101000a81548173ffffffffffffffffffffffffffffffffffffffff021916908373ffffffffffffffffffffffffffffffffffffffff16021790555060208201518160010190805190602001906104219291906104af565b50604082015181600201908051906020019061043e9291906104af565b509050503373ffffffffffffffffffffffffffffffffffffffff167fc9b63475dbcbd0ee2733845f3b4745a682b362ab372d95ddeb0013430fc07b16848460405161048a9291906107d2565b60405180910390a2600160008154809291906001019190505550505050565b60015481565b828054600181600116156101000203166002900490600052602060002090601f016020900481019282601f106104f057805160ff191683800117855561051e565b8280016001018555821561051e579182015b8281111561051d578251825591602001919060010190610502565b5b50905061052b919061052f565b5090565b61055191905b8082111561054d576000816000905550600101610535565b5090565b90565b60008135905061056381610948565b92915050565b600082601f83011261057a57600080fd5b813561058d61058882610851565b610824565b915080825260208301602083018583830111156105a957600080fd5b6105b48382846108f5565b50505092915050565b6000602082840312156105cf57600080fd5b60006105dd84828501610554565b91505092915050565b6000602082840312156105f857600080fd5b600082013567ffffffffffffffff81111561061257600080fd5b61061e84828501610569565b91505092915050565b6000806040838503121561063a57600080fd5b600083013567ffffffffffffffff81111561065457600080fd5b61066085828601610569565b925050602083013567ffffffffffffffff81111561067d57600080fd5b61068985828601610569565b9150509250929050565b61069c816108af565b82525050565b60006106ad82610888565b6106b78185610893565b93506106c7818560208601610904565b6106d081610937565b840191505092915050565b60006106e682610888565b6106f081856108a4565b9350610700818560208601610904565b80840191505092915050565b60006107178261087d565b6107218185610893565b9350610731818560208601610904565b61073a81610937565b840191505092915050565b61074e816108eb565b82525050565b600061076082846106db565b915081905092915050565b60006060820190506107806000830186610693565b8181036020830152610792818561070c565b905081810360408301526107a6818461070c565b9050949350505050565b600060208201905081810360008301526107ca81846106a2565b905092915050565b600060408201905081810360008301526107ec81856106a2565b9050818103602083015261080081846106a2565b90509392505050565b600060208201905061081e6000830184610745565b92915050565b6000604051905081810181811067ffffffffffffffff8211171561084757600080fd5b8060405250919050565b600067ffffffffffffffff82111561086857600080fd5b601f19601f8301169050602081019050919050565b600081519050919050565b600081519050919050565b600082825260208201905092915050565b600081905092915050565b60006108ba826108cb565b9050919050565b6000819050919050565b600073ffffffffffffffffffffffffffffffffffffffff82169050919050565b6000819050919050565b82818337600083830152505050565b60005b83811015610922578082015181840152602081019050610907565b83811115610931576000848401525b50505050565b6000601f19601f8301169050919050565b610951816108c1565b811461095c57600080fd5b5056fea365627a7a723158201133189dd0174565531a892e8bb150cab02971dcb84782bd85bc5f041c19a66c6c6578706572696d656e74616cf564736f6c63430005100040",
  "source": "pragma solidity >=0.4.22 <0.8.0;\r\n\r\npragma experimental ABIEncoderV2;\r\n\r\ncontract ResultStorage {\r\n    struct Result {\r\n        address sender;\r\n        string imageHash;\r\n        string result;\r\n    }\r\n\r\n    mapping(bytes32 => Result) public results;\r\n    uint256 public resultCount;\r\n\r\n    event ResultStored(address indexed sender, string imageHash, string result);\r\n\r\n    function storeResult(string memory _imageHash, string memory _result) public {\r\n        bytes32 key = keccak256(abi.encodePacked(_imageHash));\r\n        results[key] = Result(msg.sender, _imageHash, _result);\r\n        emit ResultStored(msg.sender, _imageHash, _result);\r\n        resultCount++;\r\n    }\r\n\r\nfunction getResult(string memory _imageHash) public view returns (string memory) {\r\n    bytes32 key = keccak256(abi.encodePacked(_imageHash));\r\n    Result storage result = results[key];\r\n    return result.result;\r\n}\r\n\r\n}\r\n",
  "sourcePath": "C:\\Users\\AH\\OneDrive\\Desktop\\GitHub\\Car_Snap\\car_damage_detection_web\\Blockchain\\contracts\\ResultStorage.sol",
  "compiler": {
    "name": "solc",
    "version": "0.5.16+commit.9c3226ce.Emscripten.clang"
  },
  "schemaVersion": "3.4.16",
  "updatedAt": "2024-05-04T23:02:25.585Z",
  "networkType": "ethereum",
  "devdoc": {
    "methods": {}
  },
  "userdoc": {
    "methods": {}
  }
}