{
  "contractName": "ResultStorage",
  "abi": [
    {
      "anonymous": false,
      "inputs": [
        {
          "indexed": true,
          "internalType": "address",
          "name": "sender",
          "type": "address"
        },
        {
          "indexed": false,
          "internalType": "string",
          "name": "imageHash",
          "type": "string"
        },
        {
          "indexed": false,
          "internalType": "string",
          "name": "result",
          "type": "string"
        }
      ],
      "name": "ResultStored",
      "type": "event"
    },
    {
      "constant": true,
      "inputs": [],
      "name": "resultCount",
      "outputs": [
        {
          "internalType": "uint256",
          "name": "",
          "type": "uint256"
        }
      ],
      "payable": false,
      "stateMutability": "view",
      "type": "function"
    },
    {
      "constant": true,
      "inputs": [
        {
          "internalType": "bytes32",
          "name": "",
          "type": "bytes32"
        }
      ],
      "name": "results",
      "outputs": [
        {
          "internalType": "address",
          "name": "sender",
          "type": "address"
        },
        {
          "internalType": "string",
          "name": "imageHash",
          "type": "string"
        },
        {
          "internalType": "string",
          "name": "result",
          "type": "string"
        }
      ],
      "payable": false,
      "stateMutability": "view",
      "type": "function"
    },
    {
      "constant": false,
      "inputs": [
        {
          "internalType": "string",
          "name": "_imageHash",
          "type": "string"
        },
        {
          "internalType": "string",
          "name": "_result",
          "type": "string"
        }
      ],
      "name": "storeResult",
      "outputs": [],
      "payable": false,
      "stateMutability": "nonpayable",
      "type": "function"
    },
    {
      "constant": true,
      "inputs": [
        {
          "internalType": "string",
          "name": "_imageHash",
          "type": "string"
        }
      ],
      "name": "getResult",
      "outputs": [
        {
          "internalType": "address",
          "name": "",
          "type": "address"
        },
        {
          "internalType": "string",
          "name": "",
          "type": "string"
        }
      ],
      "payable": false,
      "stateMutability": "view",
      "type": "function"
    }
  ],
  "bytecode": "0x608060405234801561001057600080fd5b506109dd806100206000396000f3fe608060405234801561001057600080fd5b506004361061004c5760003560e01c8063498cc70d146100515780634c6b25b114610082578063a6c4f4a3146100b4578063aa4fdefb146100d0575b600080fd5b61006b60048036036100669190810190610613565b6100ee565b604051610079929190610798565b60405180910390f35b61009c600480360361009791908101906105ea565b610203565b6040516100ab939291906107c8565b60405180910390f35b6100ce60048036036100c99190810190610654565b61037d565b005b6100d86104d6565b6040516100e59190610844565b60405180910390f35b600060606000836040516020016101059190610781565b604051602081830303815290604052805190602001209050600080600083815260200190815260200160002090508060000160009054906101000a900473ffffffffffffffffffffffffffffffffffffffff1681600201808054600181600116156101000203166002900480601f0160208091040260200160405190810160405280929190818152602001828054600181600116156101000203166002900480156101f15780601f106101c6576101008083540402835291602001916101f1565b820191906000526020600020905b8154815290600101906020018083116101d457829003601f168201915b50505050509050935093505050915091565b60006020528060005260406000206000915090508060000160009054906101000a900473ffffffffffffffffffffffffffffffffffffffff1690806001018054600181600116156101000203166002900480601f0160208091040260200160405190810160405280929190818152602001828054600181600116156101000203166002900480156102d55780601f106102aa576101008083540402835291602001916102d5565b820191906000526020600020905b8154815290600101906020018083116102b857829003601f168201915b505050505090806002018054600181600116156101000203166002900480601f0160208091040260200160405190810160405280929190818152602001828054600181600116156101000203166002900480156103735780601f1061034857610100808354040283529160200191610373565b820191906000526020600020905b81548152906001019060200180831161035657829003601f168201915b5050505050905083565b6000826040516020016103909190610781565b60405160208183030381529060405280519060200120905060405180606001604052803373ffffffffffffffffffffffffffffffffffffffff1681526020018481526020018381525060008083815260200190815260200160002060008201518160000160006101000a81548173ffffffffffffffffffffffffffffffffffffffff021916908373ffffffffffffffffffffffffffffffffffffffff160217905550602082015181600101908051906020019061044e9291906104dc565b50604082015181600201908051906020019061046b9291906104dc565b509050503373ffffffffffffffffffffffffffffffffffffffff167fc9b63475dbcbd0ee2733845f3b4745a682b362ab372d95ddeb0013430fc07b1684846040516104b792919061080d565b60405180910390a2600160008154809291906001019190505550505050565b60015481565b828054600181600116156101000203166002900490600052602060002090601f016020900481019282601f1061051d57805160ff191683800117855561054b565b8280016001018555821561054b579182015b8281111561054a57825182559160200191906001019061052f565b5b509050610558919061055c565b5090565b61057e91905b8082111561057a576000816000905550600101610562565b5090565b90565b60008135905061059081610983565b92915050565b600082601f8301126105a757600080fd5b81356105ba6105b58261088c565b61085f565b915080825260208301602083018583830111156105d657600080fd5b6105e1838284610930565b50505092915050565b6000602082840312156105fc57600080fd5b600061060a84828501610581565b91505092915050565b60006020828403121561062557600080fd5b600082013567ffffffffffffffff81111561063f57600080fd5b61064b84828501610596565b91505092915050565b6000806040838503121561066757600080fd5b600083013567ffffffffffffffff81111561068157600080fd5b61068d85828601610596565b925050602083013567ffffffffffffffff8111156106aa57600080fd5b6106b685828601610596565b9150509250929050565b6106c9816108ea565b82525050565b60006106da826108c3565b6106e481856108ce565b93506106f481856020860161093f565b6106fd81610972565b840191505092915050565b6000610713826108c3565b61071d81856108df565b935061072d81856020860161093f565b80840191505092915050565b6000610744826108b8565b61074e81856108ce565b935061075e81856020860161093f565b61076781610972565b840191505092915050565b61077b81610926565b82525050565b600061078d8284610708565b915081905092915050565b60006040820190506107ad60008301856106c0565b81810360208301526107bf81846106cf565b90509392505050565b60006060820190506107dd60008301866106c0565b81810360208301526107ef8185610739565b905081810360408301526108038184610739565b9050949350505050565b6000604082019050818103600083015261082781856106cf565b9050818103602083015261083b81846106cf565b90509392505050565b60006020820190506108596000830184610772565b92915050565b6000604051905081810181811067ffffffffffffffff8211171561088257600080fd5b8060405250919050565b600067ffffffffffffffff8211156108a357600080fd5b601f19601f8301169050602081019050919050565b600081519050919050565b600081519050919050565b600082825260208201905092915050565b600081905092915050565b60006108f582610906565b9050919050565b6000819050919050565b600073ffffffffffffffffffffffffffffffffffffffff82169050919050565b6000819050919050565b82818337600083830152505050565b60005b8381101561095d578082015181840152602081019050610942565b8381111561096c576000848401525b50505050565b6000601f19601f8301169050919050565b61098c816108fc565b811461099757600080fd5b5056fea365627a7a7231582099ca166c06cee35ba389130618dba22d0c45e5d60498bac74980c588713f5b036c6578706572696d656e74616cf564736f6c63430005100040",
  "source": "pragma solidity >=0.4.22 <0.8.0;\r\n\r\npragma experimental ABIEncoderV2;\r\n\r\ncontract ResultStorage {\r\n    struct Result {\r\n        address sender;\r\n        string imageHash;\r\n        string result;\r\n    }\r\n\r\n    mapping(bytes32 => Result) public results;\r\n    uint256 public resultCount;\r\n\r\n    event ResultStored(address indexed sender, string imageHash, string result);\r\n\r\n    function storeResult(string memory _imageHash, string memory _result) public {\r\n        bytes32 key = keccak256(abi.encodePacked(_imageHash));\r\n        results[key] = Result(msg.sender, _imageHash, _result);\r\n        emit ResultStored(msg.sender, _imageHash, _result);\r\n        resultCount++;\r\n    }\r\n\r\nfunction getResult(string memory _imageHash) public view returns (address, string memory) {\r\n    bytes32 key = keccak256(abi.encodePacked(_imageHash));\r\n    Result storage result = results[key];\r\n    return (result.sender, result.result);\r\n}\r\n\r\n}\r\n",
  "sourcePath": "C:\\Users\\AH\\OneDrive\\Desktop\\GitHub\\Car_Snap\\car_damage_detection_web\\Blockchain\\contracts\\ResultStorage.sol",
  "compiler": {
    "name": "solc",
    "version": "0.5.16+commit.9c3226ce.Emscripten.clang"
  },
  "schemaVersion": "3.4.16",
  "updatedAt": "2024-05-02T11:13:05.943Z",
  "devdoc": {
    "methods": {}
  },
  "userdoc": {
    "methods": {}
  }
}