{
  "contractName": "ReviewStorage",
  "abi": [
    {
      "anonymous": false,
      "inputs": [
        {
          "indexed": true,
          "internalType": "address",
          "name": "userAddress",
          "type": "address"
        },
        {
          "indexed": false,
          "internalType": "string",
          "name": "imageHash",
          "type": "string"
        },
        {
          "indexed": false,
          "internalType": "string",
          "name": "reviewText",
          "type": "string"
        },
        {
          "indexed": false,
          "internalType": "uint8",
          "name": "rating",
          "type": "uint8"
        },
        {
          "indexed": false,
          "internalType": "uint256",
          "name": "date",
          "type": "uint256"
        }
      ],
      "name": "ReviewAdded",
      "type": "event"
    },
    {
      "constant": true,
      "inputs": [
        {
          "internalType": "address",
          "name": "",
          "type": "address"
        },
        {
          "internalType": "uint256",
          "name": "",
          "type": "uint256"
        }
      ],
      "name": "userReviews",
      "outputs": [
        {
          "internalType": "address",
          "name": "userAddress",
          "type": "address"
        },
        {
          "internalType": "string",
          "name": "imageHash",
          "type": "string"
        },
        {
          "internalType": "string",
          "name": "reviewText",
          "type": "string"
        },
        {
          "internalType": "uint8",
          "name": "rating",
          "type": "uint8"
        },
        {
          "internalType": "uint256",
          "name": "date",
          "type": "uint256"
        }
      ],
      "payable": false,
      "stateMutability": "view",
      "type": "function"
    },
    {
      "constant": true,
      "inputs": [
        {
          "internalType": "uint256",
          "name": "",
          "type": "uint256"
        }
      ],
      "name": "users",
      "outputs": [
        {
          "internalType": "address",
          "name": "",
          "type": "address"
        }
      ],
      "payable": false,
      "stateMutability": "view",
      "type": "function"
    },
    {
      "constant": false,
      "inputs": [
        {
          "internalType": "string",
          "name": "_imageHash",
          "type": "string"
        },
        {
          "internalType": "string",
          "name": "_reviewText",
          "type": "string"
        },
        {
          "internalType": "uint8",
          "name": "_rating",
          "type": "uint8"
        }
      ],
      "name": "addReview",
      "outputs": [],
      "payable": false,
      "stateMutability": "nonpayable",
      "type": "function"
    },
    {
      "constant": true,
      "inputs": [
        {
          "internalType": "address",
          "name": "_user",
          "type": "address"
        }
      ],
      "name": "getReviewsByUser",
      "outputs": [
        {
          "components": [
            {
              "internalType": "address",
              "name": "userAddress",
              "type": "address"
            },
            {
              "internalType": "string",
              "name": "imageHash",
              "type": "string"
            },
            {
              "internalType": "string",
              "name": "reviewText",
              "type": "string"
            },
            {
              "internalType": "uint8",
              "name": "rating",
              "type": "uint8"
            },
            {
              "internalType": "uint256",
              "name": "date",
              "type": "uint256"
            }
          ],
          "internalType": "struct ReviewStorage.Review[]",
          "name": "",
          "type": "tuple[]"
        }
      ],
      "payable": false,
      "stateMutability": "view",
      "type": "function"
    },
    {
      "constant": true,
      "inputs": [],
      "name": "getAllUsers",
      "outputs": [
        {
          "internalType": "address[]",
          "name": "",
          "type": "address[]"
        }
      ],
      "payable": false,
      "stateMutability": "view",
      "type": "function"
    }
  ],
  "bytecode": "0x608060405234801561001057600080fd5b5061111a806100206000396000f3fe608060405234801561001057600080fd5b50600436106100575760003560e01c80631f4ac1291461005c5780632d5ddf3414610090578063365b98b2146100c0578063cb0a5327146100f0578063e2842d791461010c575b600080fd5b61007660048036036100719190810190610a7b565b61012a565b604051610087959493929190610dfb565b60405180910390f35b6100aa60048036036100a59190810190610a52565b6102d7565b6040516100b79190610e7e565b60405180910390f35b6100da60048036036100d59190810190610b36565b610535565b6040516100e79190610de0565b60405180910390f35b61010a60048036036101059190810190610ab7565b610571565b005b6101146107a2565b6040516101219190610e5c565b60405180910390f35b6000602052816000526040600020818154811061014357fe5b9060005260206000209060050201600091509150508060000160009054906101000a900473ffffffffffffffffffffffffffffffffffffffff1690806001018054600181600116156101000203166002900480601f0160208091040260200160405190810160405280929190818152602001828054600181600116156101000203166002900480156102165780601f106101eb57610100808354040283529160200191610216565b820191906000526020600020905b8154815290600101906020018083116101f957829003601f168201915b505050505090806002018054600181600116156101000203166002900480601f0160208091040260200160405190810160405280929190818152602001828054600181600116156101000203166002900480156102b45780601f10610289576101008083540402835291602001916102b4565b820191906000526020600020905b81548152906001019060200180831161029757829003601f168201915b5050505050908060030160009054906101000a900460ff16908060040154905085565b60606000808373ffffffffffffffffffffffffffffffffffffffff1673ffffffffffffffffffffffffffffffffffffffff168152602001908152602001600020805480602002602001604051908101604052809291908181526020016000905b8282101561052a57838290600052602060002090600502016040518060a00160405290816000820160009054906101000a900473ffffffffffffffffffffffffffffffffffffffff1673ffffffffffffffffffffffffffffffffffffffff1673ffffffffffffffffffffffffffffffffffffffff168152602001600182018054600181600116156101000203166002900480601f0160208091040260200160405190810160405280929190818152602001828054600181600116156101000203166002900480156104495780601f1061041e57610100808354040283529160200191610449565b820191906000526020600020905b81548152906001019060200180831161042c57829003601f168201915b50505050508152602001600282018054600181600116156101000203166002900480601f0160208091040260200160405190810160405280929190818152602001828054600181600116156101000203166002900480156104eb5780601f106104c0576101008083540402835291602001916104eb565b820191906000526020600020905b8154815290600101906020018083116104ce57829003601f168201915b505050505081526020016003820160009054906101000a900460ff1660ff1660ff16815260200160048201548152505081526020019060010190610337565b505050509050919050565b6001818154811061054257fe5b906000526020600020016000915054906101000a900473ffffffffffffffffffffffffffffffffffffffff1681565b6105796108d2565b6040518060a001604052803373ffffffffffffffffffffffffffffffffffffffff1681526020018581526020018481526020018360ff1681526020014281525090506000803373ffffffffffffffffffffffffffffffffffffffff1673ffffffffffffffffffffffffffffffffffffffff168152602001908152602001600020819080600181540180825580915050906001820390600052602060002090600502016000909192909190915060008201518160000160006101000a81548173ffffffffffffffffffffffffffffffffffffffff021916908373ffffffffffffffffffffffffffffffffffffffff160217905550602082015181600101908051906020019061068892919061091a565b5060408201518160020190805190602001906106a592919061091a565b5060608201518160030160006101000a81548160ff021916908360ff160217905550608082015181600401555050506106dd33610830565b6107485760013390806001815401808255809150509060018203906000526020600020016000909192909190916101000a81548173ffffffffffffffffffffffffffffffffffffffff021916908373ffffffffffffffffffffffffffffffffffffffff160217905550505b3373ffffffffffffffffffffffffffffffffffffffff167f42d982bef2b471280b309f73d1807be7c7c52581000547f97e1b01ef3b9ebd6b858585426040516107949493929190610ea0565b60405180910390a250505050565b6060600180548060200260200160405190810160405280929190818152602001828054801561082657602002820191906000526020600020905b8160009054906101000a900473ffffffffffffffffffffffffffffffffffffffff1673ffffffffffffffffffffffffffffffffffffffff16815260200190600101908083116107dc575b5050505050905090565b600080600090505b6001805490508110156108c7578273ffffffffffffffffffffffffffffffffffffffff166001828154811061086957fe5b9060005260206000200160009054906101000a900473ffffffffffffffffffffffffffffffffffffffff1673ffffffffffffffffffffffffffffffffffffffff1614156108ba5760019150506108cd565b8080600101915050610838565b50600090505b919050565b6040518060a00160405280600073ffffffffffffffffffffffffffffffffffffffff1681526020016060815260200160608152602001600060ff168152602001600081525090565b828054600181600116156101000203166002900490600052602060002090601f016020900481019282601f1061095b57805160ff1916838001178555610989565b82800160010185558215610989579182015b8281111561098857825182559160200191906001019061096d565b5b509050610996919061099a565b5090565b6109bc91905b808211156109b85760008160009055506001016109a0565b5090565b90565b6000813590506109ce81611092565b92915050565b600082601f8301126109e557600080fd5b81356109f86109f382610f20565b610ef3565b91508082526020830160208301858383011115610a1457600080fd5b610a1f83828461103f565b50505092915050565b600081359050610a37816110a9565b92915050565b600081359050610a4c816110c0565b92915050565b600060208284031215610a6457600080fd5b6000610a72848285016109bf565b91505092915050565b60008060408385031215610a8e57600080fd5b6000610a9c858286016109bf565b9250506020610aad85828601610a28565b9150509250929050565b600080600060608486031215610acc57600080fd5b600084013567ffffffffffffffff811115610ae657600080fd5b610af2868287016109d4565b935050602084013567ffffffffffffffff811115610b0f57600080fd5b610b1b868287016109d4565b9250506040610b2c86828701610a3d565b9150509250925092565b600060208284031215610b4857600080fd5b6000610b5684828501610a28565b91505092915050565b6000610b6b8383610b8b565b60208301905092915050565b6000610b838383610d27565b905092915050565b610b9481610ff6565b82525050565b610ba381610ff6565b82525050565b6000610bb482610f6c565b610bbe8185610fb2565b9350610bc983610f4c565b8060005b83811015610bfa578151610be18882610b5f565b9750610bec83610f98565b925050600181019050610bcd565b5085935050505092915050565b6000610c1282610f77565b610c1c8185610fc3565b935083602082028501610c2e85610f5c565b8060005b85811015610c6a5784840389528151610c4b8582610b77565b9450610c5683610fa5565b925060208a01995050600181019050610c32565b50829750879550505050505092915050565b6000610c8782610f8d565b610c918185610fe5565b9350610ca181856020860161104e565b610caa81611081565b840191505092915050565b6000610cc082610f82565b610cca8185610fd4565b9350610cda81856020860161104e565b610ce381611081565b840191505092915050565b6000610cf982610f82565b610d038185610fe5565b9350610d1381856020860161104e565b610d1c81611081565b840191505092915050565b600060a083016000830151610d3f6000860182610b8b565b5060208301518482036020860152610d578282610cb5565b91505060408301518482036040860152610d718282610cb5565b9150506060830151610d866060860182610dc2565b506080830151610d996080860182610da4565b508091505092915050565b610dad81611028565b82525050565b610dbc81611028565b82525050565b610dcb81611032565b82525050565b610dda81611032565b82525050565b6000602082019050610df56000830184610b9a565b92915050565b600060a082019050610e106000830188610b9a565b8181036020830152610e228187610cee565b90508181036040830152610e368186610cee565b9050610e456060830185610dd1565b610e526080830184610db3565b9695505050505050565b60006020820190508181036000830152610e768184610ba9565b905092915050565b60006020820190508181036000830152610e988184610c07565b905092915050565b60006080820190508181036000830152610eba8187610c7c565b90508181036020830152610ece8186610c7c565b9050610edd6040830185610dd1565b610eea6060830184610db3565b95945050505050565b6000604051905081810181811067ffffffffffffffff82111715610f1657600080fd5b8060405250919050565b600067ffffffffffffffff821115610f3757600080fd5b601f19601f8301169050602081019050919050565b6000819050602082019050919050565b6000819050602082019050919050565b600081519050919050565b600081519050919050565b600081519050919050565b600081519050919050565b6000602082019050919050565b6000602082019050919050565b600082825260208201905092915050565b600082825260208201905092915050565b600082825260208201905092915050565b600082825260208201905092915050565b600061100182611008565b9050919050565b600073ffffffffffffffffffffffffffffffffffffffff82169050919050565b6000819050919050565b600060ff82169050919050565b82818337600083830152505050565b60005b8381101561106c578082015181840152602081019050611051565b8381111561107b576000848401525b50505050565b6000601f19601f8301169050919050565b61109b81610ff6565b81146110a657600080fd5b50565b6110b281611028565b81146110bd57600080fd5b50565b6110c981611032565b81146110d457600080fd5b5056fea365627a7a72315820660c5fcc17d00a5ba75239591eb8f2d0cfa75d6d4822dafa8c6ed88fb1d79d4a6c6578706572696d656e74616cf564736f6c63430005100040",
  "source": "pragma solidity >=0.4.22 <0.8.0;\r\n\r\npragma experimental ABIEncoderV2;\r\n\r\ncontract ReviewStorage {\r\n    struct Review {\r\n        address userAddress;\r\n        string imageHash;\r\n        string reviewText;\r\n        uint8 rating; // New rating element\r\n        uint256 date; // New date element\r\n    }\r\n\r\n    mapping(address => Review[]) public userReviews;\r\n    address[] public users;\r\n\r\n    event ReviewAdded(address indexed userAddress, string imageHash, string reviewText, uint8 rating, uint256 date); // Update event definition\r\n\r\n    function addReview(string memory _imageHash, string memory _reviewText, uint8 _rating) public {\r\n        Review memory newReview = Review({\r\n            userAddress: msg.sender,\r\n            imageHash: _imageHash,\r\n            reviewText: _reviewText,\r\n            rating: _rating, // Assign rating\r\n            date: block.timestamp // Assign current block timestamp as date\r\n        });\r\n\r\n        userReviews[msg.sender].push(newReview);\r\n\r\n        if (!isUserExists(msg.sender)) {\r\n            users.push(msg.sender);\r\n        }\r\n\r\n        emit ReviewAdded(msg.sender, _imageHash, _reviewText, _rating, block.timestamp); // Emit event with rating and date\r\n    }\r\n\r\n    function getReviewsByUser(address _user) public view returns (Review[] memory) {\r\n        return userReviews[_user];\r\n    }\r\n\r\n    function getAllUsers() public view returns (address[] memory) {\r\n        return users;\r\n    }\r\n\r\n    function isUserExists(address _user) internal view returns (bool) {\r\n        for (uint256 i = 0; i < users.length; i++) {\r\n            if (users[i] == _user) {\r\n                return true;\r\n            }\r\n        }\r\n        return false;\r\n    }\r\n}\r\n",
  "sourcePath": "C:\\Users\\AH\\OneDrive\\Desktop\\GitHub\\Car_Snap\\car_damage_detection_web\\Blockchain\\contracts\\ReviewStorage.sol",
  "compiler": {
    "name": "solc",
    "version": "0.5.16+commit.9c3226ce.Emscripten.clang"
  },
  "schemaVersion": "3.4.16",
  "updatedAt": "2024-05-03T17:31:08.095Z",
  "devdoc": {
    "methods": {}
  },
  "userdoc": {
    "methods": {}
  }
}