{
    "contractName": "ReviewStorage",
    "abi": [
        {
            "anonymous": false,
            "inputs": [
                {
                    "indexed": true,
                    "internalType": "address",
                    "name": "userAddress",
                    "type": "address"
                },
                {
                    "indexed": false,
                    "internalType": "string",
                    "name": "imageHash",
                    "type": "string"
                },
                {
                    "indexed": false,
                    "internalType": "string",
                    "name": "reviewText",
                    "type": "string"
                },
                {
                    "indexed": false,
                    "internalType": "uint8",
                    "name": "rating",
                    "type": "uint8"
                }
            ],
            "name": "ReviewAdded",
            "type": "event"
        },
        {
            "constant": true,
            "inputs": [
                {
                    "internalType": "address",
                    "name": "",
                    "type": "address"
                },
                {
                    "internalType": "uint256",
                    "name": "",
                    "type": "uint256"
                }
            ],
            "name": "userReviews",
            "outputs": [
                {
                    "internalType": "address",
                    "name": "userAddress",
                    "type": "address"
                },
                {
                    "internalType": "string",
                    "name": "imageHash",
                    "type": "string"
                },
                {
                    "internalType": "string",
                    "name": "reviewText",
                    "type": "string"
                },
                {
                    "internalType": "uint8",
                    "name": "rating",
                    "type": "uint8"
                }
            ],
            "payable": false,
            "stateMutability": "view",
            "type": "function"
        },
        {
            "constant": true,
            "inputs": [
                {
                    "internalType": "uint256",
                    "name": "",
                    "type": "uint256"
                }
            ],
            "name": "users",
            "outputs": [
                {
                    "internalType": "address",
                    "name": "",
                    "type": "address"
                }
            ],
            "payable": false,
            "stateMutability": "view",
            "type": "function"
        },
        {
            "constant": false,
            "inputs": [
                {
                    "internalType": "string",
                    "name": "_imageHash",
                    "type": "string"
                },
                {
                    "internalType": "string",
                    "name": "_reviewText",
                    "type": "string"
                },
                {
                    "internalType": "uint8",
                    "name": "_rating",
                    "type": "uint8"
                }
            ],
            "name": "addReview",
            "outputs": [],
            "payable": false,
            "stateMutability": "nonpayable",
            "type": "function"
        },
        {
            "constant": true,
            "inputs": [
                {
                    "internalType": "address",
                    "name": "_user",
                    "type": "address"
                }
            ],
            "name": "getReviewsByUser",
            "outputs": [
                {
                    "components": [
                        {
                            "internalType": "address",
                            "name": "userAddress",
                            "type": "address"
                        },
                        {
                            "internalType": "string",
                            "name": "imageHash",
                            "type": "string"
                        },
                        {
                            "internalType": "string",
                            "name": "reviewText",
                            "type": "string"
                        },
                        {
                            "internalType": "uint8",
                            "name": "rating",
                            "type": "uint8"
                        }
                    ],
                    "internalType": "struct ReviewStorage.Review[]",
                    "name": "",
                    "type": "tuple[]"
                }
            ],
            "payable": false,
            "stateMutability": "view",
            "type": "function"
        },
        {
            "constant": true,
            "inputs": [],
            "name": "getAllUsers",
            "outputs": [
                {
                    "internalType": "address[]",
                    "name": "",
                    "type": "address[]"
                }
            ],
            "payable": false,
            "stateMutability": "view",
            "type": "function"
        }
    ],
    "bytecode": "0x608060405234801561001057600080fd5b506110a3806100206000396000f3fe608060405234801561001057600080fd5b50600436106100575760003560e01c80631f4ac1291461005c5780632d5ddf341461008f578063365b98b2146100bf578063cb0a5327146100ef578063e2842d791461010b575b600080fd5b61007660048036036100719190810190610a51565b610129565b6040516100869493929190610da0565b60405180910390f35b6100a960048036036100a49190810190610a28565b6102d0565b6040516100b69190610e15565b60405180910390f35b6100d960048036036100d49190810190610b0c565b610524565b6040516100e69190610d85565b60405180910390f35b61010960048036036101049190810190610a8d565b610560565b005b61011361077f565b6040516101209190610df3565b60405180910390f35b6000602052816000526040600020818154811061014257fe5b9060005260206000209060040201600091509150508060000160009054906101000a900473ffffffffffffffffffffffffffffffffffffffff1690806001018054600181600116156101000203166002900480601f0160208091040260200160405190810160405280929190818152602001828054600181600116156101000203166002900480156102155780601f106101ea57610100808354040283529160200191610215565b820191906000526020600020905b8154815290600101906020018083116101f857829003601f168201915b505050505090806002018054600181600116156101000203166002900480601f0160208091040260200160405190810160405280929190818152602001828054600181600116156101000203166002900480156102b35780601f10610288576101008083540402835291602001916102b3565b820191906000526020600020905b81548152906001019060200180831161029657829003601f168201915b5050505050908060030160009054906101000a900460ff16905084565b60606000808373ffffffffffffffffffffffffffffffffffffffff1673ffffffffffffffffffffffffffffffffffffffff168152602001908152602001600020805480602002602001604051908101604052809291908181526020016000905b8282101561051957838290600052602060002090600402016040518060800160405290816000820160009054906101000a900473ffffffffffffffffffffffffffffffffffffffff1673ffffffffffffffffffffffffffffffffffffffff1673ffffffffffffffffffffffffffffffffffffffff168152602001600182018054600181600116156101000203166002900480601f0160208091040260200160405190810160405280929190818152602001828054600181600116156101000203166002900480156104425780601f1061041757610100808354040283529160200191610442565b820191906000526020600020905b81548152906001019060200180831161042557829003601f168201915b50505050508152602001600282018054600181600116156101000203166002900480601f0160208091040260200160405190810160405280929190818152602001828054600181600116156101000203166002900480156104e45780601f106104b9576101008083540402835291602001916104e4565b820191906000526020600020905b8154815290600101906020018083116104c757829003601f168201915b505050505081526020016003820160009054906101000a900460ff1660ff1660ff168152505081526020019060010190610330565b505050509050919050565b6001818154811061053157fe5b906000526020600020016000915054906101000a900473ffffffffffffffffffffffffffffffffffffffff1681565b6105686108af565b60405180608001604052803373ffffffffffffffffffffffffffffffffffffffff1681526020018581526020018481526020018360ff1681525090506000803373ffffffffffffffffffffffffffffffffffffffff1673ffffffffffffffffffffffffffffffffffffffff168152602001908152602001600020819080600181540180825580915050906001820390600052602060002090600402016000909192909190915060008201518160000160006101000a81548173ffffffffffffffffffffffffffffffffffffffff021916908373ffffffffffffffffffffffffffffffffffffffff16021790555060208201518160010190805190602001906106719291906108f0565b50604082015181600201908051906020019061068e9291906108f0565b5060608201518160030160006101000a81548160ff021916908360ff1602179055505050506106bc3361080d565b6107275760013390806001815401808255809150509060018203906000526020600020016000909192909190916101000a81548173ffffffffffffffffffffffffffffffffffffffff021916908373ffffffffffffffffffffffffffffffffffffffff160217905550505b3373ffffffffffffffffffffffffffffffffffffffff167f2bd3e7291fcae005578b827a89356292df666b1a5164b686fe157e3df28e7dd785858560405161077193929190610e37565b60405180910390a250505050565b6060600180548060200260200160405190810160405280929190818152602001828054801561080357602002820191906000526020600020905b8160009054906101000a900473ffffffffffffffffffffffffffffffffffffffff1673ffffffffffffffffffffffffffffffffffffffff16815260200190600101908083116107b9575b5050505050905090565b600080600090505b6001805490508110156108a4578273ffffffffffffffffffffffffffffffffffffffff166001828154811061084657fe5b9060005260206000200160009054906101000a900473ffffffffffffffffffffffffffffffffffffffff1673ffffffffffffffffffffffffffffffffffffffff1614156108975760019150506108aa565b8080600101915050610815565b50600090505b919050565b6040518060800160405280600073ffffffffffffffffffffffffffffffffffffffff1681526020016060815260200160608152602001600060ff1681525090565b828054600181600116156101000203166002900490600052602060002090601f016020900481019282601f1061093157805160ff191683800117855561095f565b8280016001018555821561095f579182015b8281111561095e578251825591602001919060010190610943565b5b50905061096c9190610970565b5090565b61099291905b8082111561098e576000816000905550600101610976565b5090565b90565b6000813590506109a48161101b565b92915050565b600082601f8301126109bb57600080fd5b81356109ce6109c982610ea9565b610e7c565b915080825260208301602083018583830111156109ea57600080fd5b6109f5838284610fc8565b50505092915050565b600081359050610a0d81611032565b92915050565b600081359050610a2281611049565b92915050565b600060208284031215610a3a57600080fd5b6000610a4884828501610995565b91505092915050565b60008060408385031215610a6457600080fd5b6000610a7285828601610995565b9250506020610a83858286016109fe565b9150509250929050565b600080600060608486031215610aa257600080fd5b600084013567ffffffffffffffff811115610abc57600080fd5b610ac8868287016109aa565b935050602084013567ffffffffffffffff811115610ae557600080fd5b610af1868287016109aa565b9250506040610b0286828701610a13565b9150509250925092565b600060208284031215610b1e57600080fd5b6000610b2c848285016109fe565b91505092915050565b6000610b418383610b61565b60208301905092915050565b6000610b598383610cfd565b905092915050565b610b6a81610f7f565b82525050565b610b7981610f7f565b82525050565b6000610b8a82610ef5565b610b948185610f3b565b9350610b9f83610ed5565b8060005b83811015610bd0578151610bb78882610b35565b9750610bc283610f21565b925050600181019050610ba3565b5085935050505092915050565b6000610be882610f00565b610bf28185610f4c565b935083602082028501610c0485610ee5565b8060005b85811015610c405784840389528151610c218582610b4d565b9450610c2c83610f2e565b925060208a01995050600181019050610c08565b50829750879550505050505092915050565b6000610c5d82610f16565b610c678185610f6e565b9350610c77818560208601610fd7565b610c808161100a565b840191505092915050565b6000610c9682610f0b565b610ca08185610f5d565b9350610cb0818560208601610fd7565b610cb98161100a565b840191505092915050565b6000610ccf82610f0b565b610cd98185610f6e565b9350610ce9818560208601610fd7565b610cf28161100a565b840191505092915050565b6000608083016000830151610d156000860182610b61565b5060208301518482036020860152610d2d8282610c8b565b91505060408301518482036040860152610d478282610c8b565b9150506060830151610d5c6060860182610d67565b508091505092915050565b610d7081610fbb565b82525050565b610d7f81610fbb565b82525050565b6000602082019050610d9a6000830184610b70565b92915050565b6000608082019050610db56000830187610b70565b8181036020830152610dc78186610cc4565b90508181036040830152610ddb8185610cc4565b9050610dea6060830184610d76565b95945050505050565b60006020820190508181036000830152610e0d8184610b7f565b905092915050565b60006020820190508181036000830152610e2f8184610bdd565b905092915050565b60006060820190508181036000830152610e518186610c52565b90508181036020830152610e658185610c52565b9050610e746040830184610d76565b949350505050565b6000604051905081810181811067ffffffffffffffff82111715610e9f57600080fd5b8060405250919050565b600067ffffffffffffffff821115610ec057600080fd5b601f19601f8301169050602081019050919050565b6000819050602082019050919050565b6000819050602082019050919050565b600081519050919050565b600081519050919050565b600081519050919050565b600081519050919050565b6000602082019050919050565b6000602082019050919050565b600082825260208201905092915050565b600082825260208201905092915050565b600082825260208201905092915050565b600082825260208201905092915050565b6000610f8a82610f91565b9050919050565b600073ffffffffffffffffffffffffffffffffffffffff82169050919050565b6000819050919050565b600060ff82169050919050565b82818337600083830152505050565b60005b83811015610ff5578082015181840152602081019050610fda565b83811115611004576000848401525b50505050565b6000601f19601f8301169050919050565b61102481610f7f565b811461102f57600080fd5b50565b61103b81610fb1565b811461104657600080fd5b50565b61105281610fbb565b811461105d57600080fd5b5056fea365627a7a72315820c40ae50356073a508936c2937f454d31807b1ff09af87ba207de7cc25ffb8aa16c6578706572696d656e74616cf564736f6c63430005100040",
    "source": "pragma solidity >=0.4.22 <0.8.0;\r\n\r\npragma experimental ABIEncoderV2;\r\n\r\ncontract ReviewStorage {\r\n    struct Review {\r\n        address userAddress;\r\n        string imageHash;\r\n        string reviewText;\r\n        uint8 rating; // New rating element\r\n    }\r\n\r\n    mapping(address => Review[]) public userReviews;\r\n    address[] public users;\r\n\r\n    event ReviewAdded(address indexed userAddress, string imageHash, string reviewText, uint8 rating); // Update event definition\r\n\r\n    function addReview(string memory _imageHash, string memory _reviewText, uint8 _rating) public {\r\n        Review memory newReview = Review({\r\n            userAddress: msg.sender,\r\n            imageHash: _imageHash,\r\n            reviewText: _reviewText,\r\n            rating: _rating // Assign rating\r\n        });\r\n\r\n        userReviews[msg.sender].push(newReview);\r\n\r\n        if (!isUserExists(msg.sender)) {\r\n            users.push(msg.sender);\r\n        }\r\n\r\n        emit ReviewAdded(msg.sender, _imageHash, _reviewText, _rating); // Emit event with rating\r\n    }\r\n\r\n    function getReviewsByUser(address _user) public view returns (Review[] memory) {\r\n        return userReviews[_user];\r\n    }\r\n\r\n    function getAllUsers() public view returns (address[] memory) {\r\n        return users;\r\n    }\r\n\r\n    function isUserExists(address _user) internal view returns (bool) {\r\n        for (uint256 i = 0; i < users.length; i++) {\r\n            if (users[i] == _user) {\r\n                return true;\r\n            }\r\n        }\r\n        return false;\r\n    }\r\n}\r\n",
    "sourcePath": "C:\\Users\\AH\\OneDrive\\Desktop\\GitHub\\Car_Snap\\car_damage_detection_web\\Blockchain\\contracts\\ReviewStorage.sol",
    "compiler": {
        "name": "solc",
        "version": "0.5.16+commit.9c3226ce.Emscripten.clang"
    },
    "schemaVersion": "3.4.16",
    "updatedAt": "2024-04-26T20:00:03.008Z",
    "networkType": "ethereum",
    "devdoc": {
        "methods": {}
    },
    "userdoc": {
        "methods": {}
    }
}