{
  "contractName": "ReviewStorage",
  "abi": [
    {
      "anonymous": false,
      "inputs": [
        {
          "indexed": true,
          "internalType": "address",
          "name": "userAddress",
          "type": "address"
        },
        {
          "indexed": false,
          "internalType": "string",
          "name": "imageHash",
          "type": "string"
        },
        {
          "indexed": false,
          "internalType": "string",
          "name": "reviewText",
          "type": "string"
        }
      ],
      "name": "ReviewAdded",
      "type": "event"
    },
    {
      "constant": true,
      "inputs": [
        {
          "internalType": "address",
          "name": "",
          "type": "address"
        },
        {
          "internalType": "uint256",
          "name": "",
          "type": "uint256"
        }
      ],
      "name": "userReviews",
      "outputs": [
        {
          "internalType": "address",
          "name": "userAddress",
          "type": "address"
        },
        {
          "internalType": "string",
          "name": "imageHash",
          "type": "string"
        },
        {
          "internalType": "string",
          "name": "reviewText",
          "type": "string"
        }
      ],
      "payable": false,
      "stateMutability": "view",
      "type": "function"
    },
    {
      "constant": true,
      "inputs": [
        {
          "internalType": "uint256",
          "name": "",
          "type": "uint256"
        }
      ],
      "name": "users",
      "outputs": [
        {
          "internalType": "address",
          "name": "",
          "type": "address"
        }
      ],
      "payable": false,
      "stateMutability": "view",
      "type": "function"
    },
    {
      "constant": false,
      "inputs": [
        {
          "internalType": "string",
          "name": "_imageHash",
          "type": "string"
        },
        {
          "internalType": "string",
          "name": "_reviewText",
          "type": "string"
        }
      ],
      "name": "addReview",
      "outputs": [],
      "payable": false,
      "stateMutability": "nonpayable",
      "type": "function"
    },
    {
      "constant": true,
      "inputs": [
        {
          "internalType": "address",
          "name": "_user",
          "type": "address"
        }
      ],
      "name": "getReviewsByUser",
      "outputs": [
        {
          "components": [
            {
              "internalType": "address",
              "name": "userAddress",
              "type": "address"
            },
            {
              "internalType": "string",
              "name": "imageHash",
              "type": "string"
            },
            {
              "internalType": "string",
              "name": "reviewText",
              "type": "string"
            }
          ],
          "internalType": "struct ReviewStorage.Review[]",
          "name": "",
          "type": "tuple[]"
        }
      ],
      "payable": false,
      "stateMutability": "view",
      "type": "function"
    },
    {
      "constant": true,
      "inputs": [],
      "name": "getAllUsers",
      "outputs": [
        {
          "internalType": "address[]",
          "name": "",
          "type": "address[]"
        }
      ],
      "payable": false,
      "stateMutability": "view",
      "type": "function"
    }
  ],
  "bytecode": "0x608060405234801561001057600080fd5b50610fa2806100206000396000f3fe608060405234801561001057600080fd5b50600436106100575760003560e01c80631f4ac1291461005c5780632d5ddf341461008e578063365b98b2146100be578063adb489a3146100ee578063e2842d791461010a575b600080fd5b610076600480360361007191908101906109d4565b610128565b60405161008593929190610cdf565b60405180910390f35b6100a860048036036100a391908101906109ab565b6102bc565b6040516100b59190610d46565b60405180910390f35b6100d860048036036100d39190810190610a7c565b6104f3565b6040516100e59190610cc4565b60405180910390f35b61010860048036036101039190810190610a10565b61052f565b005b610112610721565b60405161011f9190610d24565b60405180910390f35b6000602052816000526040600020818154811061014157fe5b9060005260206000209060030201600091509150508060000160009054906101000a900473ffffffffffffffffffffffffffffffffffffffff1690806001018054600181600116156101000203166002900480601f0160208091040260200160405190810160405280929190818152602001828054600181600116156101000203166002900480156102145780601f106101e957610100808354040283529160200191610214565b820191906000526020600020905b8154815290600101906020018083116101f757829003601f168201915b505050505090806002018054600181600116156101000203166002900480601f0160208091040260200160405190810160405280929190818152602001828054600181600116156101000203166002900480156102b25780601f10610287576101008083540402835291602001916102b2565b820191906000526020600020905b81548152906001019060200180831161029557829003601f168201915b5050505050905083565b60606000808373ffffffffffffffffffffffffffffffffffffffff1673ffffffffffffffffffffffffffffffffffffffff168152602001908152602001600020805480602002602001604051908101604052809291908181526020016000905b828210156104e857838290600052602060002090600302016040518060600160405290816000820160009054906101000a900473ffffffffffffffffffffffffffffffffffffffff1673ffffffffffffffffffffffffffffffffffffffff1673ffffffffffffffffffffffffffffffffffffffff168152602001600182018054600181600116156101000203166002900480601f01602080910402602001604051908101604052809291908181526020018280546001816001161561010002031660029004801561042e5780601f106104035761010080835404028352916020019161042e565b820191906000526020600020905b81548152906001019060200180831161041157829003601f168201915b50505050508152602001600282018054600181600116156101000203166002900480601f0160208091040260200160405190810160405280929190818152602001828054600181600116156101000203166002900480156104d05780601f106104a5576101008083540402835291602001916104d0565b820191906000526020600020905b8154815290600101906020018083116104b357829003601f168201915b5050505050815250508152602001906001019061031c565b505050509050919050565b6001818154811061050057fe5b906000526020600020016000915054906101000a900473ffffffffffffffffffffffffffffffffffffffff1681565b610537610851565b60405180606001604052803373ffffffffffffffffffffffffffffffffffffffff1681526020018481526020018381525090506000803373ffffffffffffffffffffffffffffffffffffffff1673ffffffffffffffffffffffffffffffffffffffff168152602001908152602001600020819080600181540180825580915050906001820390600052602060002090600302016000909192909190915060008201518160000160006101000a81548173ffffffffffffffffffffffffffffffffffffffff021916908373ffffffffffffffffffffffffffffffffffffffff1602179055506020820151816001019080519060200190610637929190610888565b506040820151816002019080519060200190610654929190610888565b50505050610661336107af565b6106cc5760013390806001815401808255809150509060018203906000526020600020016000909192909190916101000a81548173ffffffffffffffffffffffffffffffffffffffff021916908373ffffffffffffffffffffffffffffffffffffffff160217905550505b3373ffffffffffffffffffffffffffffffffffffffff167fe72c55a363e2e57eb376806cfab5e31c63309f09d6c3697f0c3d00ff11e75f358484604051610714929190610d68565b60405180910390a2505050565b606060018054806020026020016040519081016040528092919081815260200182805480156107a557602002820191906000526020600020905b8160009054906101000a900473ffffffffffffffffffffffffffffffffffffffff1673ffffffffffffffffffffffffffffffffffffffff168152602001906001019080831161075b575b5050505050905090565b600080600090505b600180549050811015610846578273ffffffffffffffffffffffffffffffffffffffff16600182815481106107e857fe5b9060005260206000200160009054906101000a900473ffffffffffffffffffffffffffffffffffffffff1673ffffffffffffffffffffffffffffffffffffffff16141561083957600191505061084c565b80806001019150506107b7565b50600090505b919050565b6040518060600160405280600073ffffffffffffffffffffffffffffffffffffffff16815260200160608152602001606081525090565b828054600181600116156101000203166002900490600052602060002090601f016020900481019282601f106108c957805160ff19168380011785556108f7565b828001600101855582156108f7579182015b828111156108f65782518255916020019190600101906108db565b5b5090506109049190610908565b5090565b61092a91905b8082111561092657600081600090555060010161090e565b5090565b90565b60008135905061093c81610f31565b92915050565b600082601f83011261095357600080fd5b813561096661096182610dcc565b610d9f565b9150808252602083016020830185838301111561098257600080fd5b61098d838284610ede565b50505092915050565b6000813590506109a581610f48565b92915050565b6000602082840312156109bd57600080fd5b60006109cb8482850161092d565b91505092915050565b600080604083850312156109e757600080fd5b60006109f58582860161092d565b9250506020610a0685828601610996565b9150509250929050565b60008060408385031215610a2357600080fd5b600083013567ffffffffffffffff811115610a3d57600080fd5b610a4985828601610942565b925050602083013567ffffffffffffffff811115610a6657600080fd5b610a7285828601610942565b9150509250929050565b600060208284031215610a8e57600080fd5b6000610a9c84828501610996565b91505092915050565b6000610ab18383610ad1565b60208301905092915050565b6000610ac98383610c6d565b905092915050565b610ada81610ea2565b82525050565b610ae981610ea2565b82525050565b6000610afa82610e18565b610b048185610e5e565b9350610b0f83610df8565b8060005b83811015610b40578151610b278882610aa5565b9750610b3283610e44565b925050600181019050610b13565b5085935050505092915050565b6000610b5882610e23565b610b628185610e6f565b935083602082028501610b7485610e08565b8060005b85811015610bb05784840389528151610b918582610abd565b9450610b9c83610e51565b925060208a01995050600181019050610b78565b50829750879550505050505092915050565b6000610bcd82610e39565b610bd78185610e91565b9350610be7818560208601610eed565b610bf081610f20565b840191505092915050565b6000610c0682610e2e565b610c108185610e80565b9350610c20818560208601610eed565b610c2981610f20565b840191505092915050565b6000610c3f82610e2e565b610c498185610e91565b9350610c59818560208601610eed565b610c6281610f20565b840191505092915050565b6000606083016000830151610c856000860182610ad1565b5060208301518482036020860152610c9d8282610bfb565b91505060408301518482036040860152610cb78282610bfb565b9150508091505092915050565b6000602082019050610cd96000830184610ae0565b92915050565b6000606082019050610cf46000830186610ae0565b8181036020830152610d068185610c34565b90508181036040830152610d1a8184610c34565b9050949350505050565b60006020820190508181036000830152610d3e8184610aef565b905092915050565b60006020820190508181036000830152610d608184610b4d565b905092915050565b60006040820190508181036000830152610d828185610bc2565b90508181036020830152610d968184610bc2565b90509392505050565b6000604051905081810181811067ffffffffffffffff82111715610dc257600080fd5b8060405250919050565b600067ffffffffffffffff821115610de357600080fd5b601f19601f8301169050602081019050919050565b6000819050602082019050919050565b6000819050602082019050919050565b600081519050919050565b600081519050919050565b600081519050919050565b600081519050919050565b6000602082019050919050565b6000602082019050919050565b600082825260208201905092915050565b600082825260208201905092915050565b600082825260208201905092915050565b600082825260208201905092915050565b6000610ead82610eb4565b9050919050565b600073ffffffffffffffffffffffffffffffffffffffff82169050919050565b6000819050919050565b82818337600083830152505050565b60005b83811015610f0b578082015181840152602081019050610ef0565b83811115610f1a576000848401525b50505050565b6000601f19601f8301169050919050565b610f3a81610ea2565b8114610f4557600080fd5b50565b610f5181610ed4565b8114610f5c57600080fd5b5056fea365627a7a72315820c66a6b9b2184198fe417d66c7bd005da068b8ce90770e73814445067184bc0dd6c6578706572696d656e74616cf564736f6c63430005100040",
  "source": "pragma solidity >=0.4.22 <0.8.0;\r\n\r\npragma experimental ABIEncoderV2;\r\n\r\ncontract ReviewStorage {\r\n    struct Review {\r\n        address userAddress;\r\n        string imageHash;\r\n        string reviewText;\r\n    }\r\n\r\n    mapping(address => Review[]) public userReviews;\r\n    address[] public users;\r\n\r\n    event ReviewAdded(address indexed userAddress, string imageHash, string reviewText);\r\n\r\n    function addReview(string memory _imageHash, string memory _reviewText) public {\r\n        Review memory newReview = Review({\r\n            userAddress: msg.sender,\r\n            imageHash: _imageHash,\r\n            reviewText: _reviewText\r\n        });\r\n\r\n        userReviews[msg.sender].push(newReview);\r\n\r\n        if (!isUserExists(msg.sender)) {\r\n            users.push(msg.sender);\r\n        }\r\n\r\n        emit ReviewAdded(msg.sender, _imageHash, _reviewText);\r\n    }\r\n\r\n    function getReviewsByUser(address _user) public view returns (Review[] memory) {\r\n        return userReviews[_user];\r\n    }\r\n\r\n    function getAllUsers() public view returns (address[] memory) {\r\n        return users;\r\n    }\r\n\r\n    function isUserExists(address _user) internal view returns (bool) {\r\n        for (uint256 i = 0; i < users.length; i++) {\r\n            if (users[i] == _user) {\r\n                return true;\r\n            }\r\n        }\r\n        return false;\r\n    }\r\n}\r\n",
  "sourcePath": "C:\\Users\\PC\\Documents\\GitHub\\Car_Snap\\car_damage_detection_web\\Blockchain\\contracts\\ReviewStorage.sol",
  "compiler": {
    "name": "solc",
    "version": "0.5.16+commit.9c3226ce.Emscripten.clang"
  },
  "schemaVersion": "3.4.16",
  "updatedAt": "2024-04-25T10:37:37.361Z",
  "devdoc": {
    "methods": {}
  },
  "userdoc": {
    "methods": {}
  }
}